:020000040000FA
:1000000070020010650100006D0100006F0100002A
:1000100000000000000000000000000000000000E0
:10002000000000000000000000000000710100005E
:1000300000000000000000007301000075010000D6
:1000400077010000770100007701000077010000D0
:1000500077010000770100007701000077010000C0
:1000600077010000770100007701000077010000B0
:1000700077010000770100007701000077010000A0
:100080007701000077010000810200007701000085
:100090007701000077010000770100007701000080
:1000A0007701000077010000770100007701000070
:1000B00005020000770100007701000077010000D1
:1000C00000F002F800F03EF80CA030C80838241800
:1000D0002D18A246671EAB4654465D46AC4201D180
:1000E00000F030F87E460F3E0FCCB6460126334274
:1000F00000D0FB1AA246AB4633431847E00100008C
:1001000000020000103A02D378C878C1FAD852072A
:1001100001D330C830C101D504680C6070470000BD
:100120000023002400250026103A01D378C1FBD813
:10013000520700D330C100D50B6070471FB51FBDFB
:1001400010B510BD00F02BF81146FFF7F7FF00F0D7
:10015000B9F800F043F803B4FFF7F2FF03BC00F076
:1001600049F800000748804707480047FEE7FEE7D8
:10017000FEE7FEE7FEE7FEE704480549034A054BB4
:100180007047000031040000C10000007000001042
:10019000700200107000001070477047704775467D
:1001A00000F024F8AE46050069465346C008C0007A
:1001B000854618B020B5FFF7DFFF60BC002749086F
:1001C000B6460026C0C5C0C5C0C5C0C5C0C5C0C5EF
:1001D000C0C5C0C5403D49008D46704710B50446B6
:1001E000C046C0462046FFF7B6FF10BD0048704726
:1001F0000C00001001491820ABBEFEE726000200EB
:10020000704700001B488069C007C00F002815D048
:100210001948C06B400840001749C86300BF174821
:10022000C06BC007C00F0028F9D01348C06B012174
:1002300008431149C86301200E49C8610D4880690F
:1002400002210840022813D10B48C06B88430A4999
:10025000C86300BF0948C06B022108400228F9D1D9
:100260000548C06B08430449C86302200149C861BE
:100270007047000000800350C03F0250C03F035051
:1002800001200D4908600D480068072806D1FE20AE
:100290000B49C86300200949086070470848C06BD3
:1002A000C0434000C0430649C86304480068401C7E
:1002B0000249086000BFF0E7004001400400001060
:1002C000C03F025000F01CF800F002F9FE20024985
:1002D000C86300BFFEE70000C03F025020050000D9
:1002E000000000100C000000040100002C050000BC
:1002F0000C0000106402000020010000FFFFFFFF5F
:1003000048480068012109040843464908604648F6
:100310008068C008C00044498860084680688860DA
:100320000846806AC008C00088620846806A886201
:100330003D484030C069C008C0003B494031C861F9
:100340000846C069C86138488030C068C008C0002D
:1003500035498031C8600846C068C86032484030BE
:100360000068C008C0003049403108600846006895
:10037000086008464068C008C000486008464068F9
:10038000486029480068C008C0002749086008463E
:10039000006808600846006AC008C0000862084695
:1003A000006A08621F4800680121090488431D494A
:1003B0000860084600684021C9430843194908609D
:1003C0001A48006801210843184908600846006877
:1003D00002210843154908600846006804210843C3
:1003E0001249086008460068082108430F49086060
:1003F00008460068102108430C4908600846006858
:100400002021084309490860084600684021084344
:1004100006490860084600688021084303490860CF
:10042000704700008080044000400440008002507B
:1004300008B52548806B2021884323498863002024
:1004400022490862009003E000BF0098401C009021
:100450000098C828F8D301201C4940310860486042
:10046000002048600120486000BF184840304068C4
:10047000C007C00F0028F8D0232014498860124814
:10048000806B802188431049886300BF0F48C06893
:10049000C007C00F0028F9D003200C494031086381
:1004A00001204863002048630120486300BF0748DB
:1004B0004030406BC007C00F0028F8D0012003492E
:1004C0004031886308BD0000008204400080044081
:1004D0000F4800680121490208430D4908600120C6
:1004E0000C4908600020C860032048610A48006881
:1004F00080088861012048601220002805DBC206C0
:10050000D20E01219140054A116000BF70470000E2
:1005100080800440004001400800001000E100E03D
:0C0520000000000000000000006CDC0285
:04000005000000C136
:00000001FF
